:100000000C9434000C943E000C943E000C943E0082
:100010000C943E000C943E000C943E000C943E0068
:100020000C943E000C943E000C943E000C943E0058
:100030000C943E000C943E000C943E000C943E0048
:100040000C943E000C943E000C943E000C943E0038
:100050000C943E000C943E000C943E000C943E0028
:100060000C943E000C943E0011241FBECFEFD8E04C
:10007000DEBFCDBF0E9440000C9420010C94000014
:10008000509A589A2FEF84E39CE021508040904092
:10009000E1F700C0000058982FEF8EE994E221505C
:1000A00080409040E1F700C00000589A2FE78FE4AD
:1000B00092E1215080409040E1F700C00000589844
:1000C0002FEF8DE399E4215080409040E1F700C08C
:1000D0000000589A2FE78FE492E121508040904031
:1000E000E1F700C0000058982FEF8EE994E221500C
:1000F00080409040E1F700C00000589A2FEF84E361
:100100009CE0215080409040E1F700C000005898EA
:100110002FEF8DE399E4215080409040E1F700C03B
:100120000000589A2FEF84E39CE0215080409040DB
:10013000E1F700C0000058982FEF81EE94E02150C5
:1001400080409040E1F700C00000589A2FE78FE40C
:1001500092E1215080409040E1F700C000005898A3
:100160002FEF8EE994E2215080409040E1F700C0EB
:100170000000589A2FE78FE492E121508040904090
:10018000E1F700C0000058982FEF81EE94E0215075
:1001900080409040E1F700C00000589A2FE78FE4BC
:1001A00092E1215080409040E1F700C00000589853
:1001B0002FEF8EE994E2215080409040E1F700C09B
:1001C0000000589A2FE78FE492E121508040904040
:1001D000E1F700C0000058982FEF81EE94E0215025
:1001E00080409040E1F700C00000589A2FE78FE46C
:1001F00092E1215080409040E1F700C00000589803
:100200002FEF81EE94E0215080409040E1F700C054
:100210000000589A2FE78FE492E1215080409040EF
:10022000E1F700C0000058982FEF81EE94E02150D4
:1002300080409040E1F700C0000090E080E0089529
:04024000F894FFCF60
:00000001FF
